{
    "_format": "hh-sol-artifact-1",
    "contractName": "Properties",
    "sourceName": "contracts/Properties.sol",
    "abi": [
        {
            "inputs": [],
            "stateMutability": "nonpayable",
            "type": "constructor"
        },
        {
            "anonymous": false,
            "inputs": [
                {
                    "indexed": true,
                    "internalType": "uint256",
                    "name": "propertiesId",
                    "type": "uint256"
                },
                {
                    "indexed": false,
                    "internalType": "uint256",
                    "name": "price",
                    "type": "uint256"
                }
            ],
            "name": "PropertiesAdded",
            "type": "event"
        },
        {
            "anonymous": false,
            "inputs": [
                {
                    "indexed": true,
                    "internalType": "address",
                    "name": "buyer",
                    "type": "address"
                },
                {
                    "indexed": true,
                    "internalType": "uint256",
                    "name": "propertiesId",
                    "type": "uint256"
                },
                {
                    "indexed": false,
                    "internalType": "uint256",
                    "name": "price",
                    "type": "uint256"
                }
            ],
            "name": "PropertiesPurchased",
            "type": "event"
        },
        {
            "anonymous": false,
            "inputs": [
                {
                    "indexed": true,
                    "internalType": "address",
                    "name": "seller",
                    "type": "address"
                },
                {
                    "indexed": true,
                    "internalType": "uint256",
                    "name": "propertiesId",
                    "type": "uint256"
                }
            ],
            "name": "PurchaseConfirmed",
            "type": "event"
        },
        {
            "inputs": [
                {
                    "internalType": "uint256",
                    "name": "propertiesId",
                    "type": "uint256"
                },
                {
                    "internalType": "uint256",
                    "name": "price",
                    "type": "uint256"
                }
            ],
            "name": "addProperty",
            "outputs": [],
            "stateMutability": "nonpayable",
            "type": "function"
        },
        {
            "inputs": [
                {
                    "internalType": "uint256",
                    "name": "",
                    "type": "uint256"
                }
            ],
            "name": "buyers",
            "outputs": [
                {
                    "internalType": "address",
                    "name": "",
                    "type": "address"
                }
            ],
            "stateMutability": "view",
            "type": "function"
        },
        {
            "inputs": [
                {
                    "internalType": "uint256",
                    "name": "propertiesId",
                    "type": "uint256"
                }
            ],
            "name": "confirmPurchase",
            "outputs": [],
            "stateMutability": "nonpayable",
            "type": "function"
        },
        {
            "inputs": [
                {
                    "internalType": "uint256",
                    "name": "",
                    "type": "uint256"
                }
            ],
            "name": "isConfirmed",
            "outputs": [
                {
                    "internalType": "bool",
                    "name": "",
                    "type": "bool"
                }
            ],
            "stateMutability": "view",
            "type": "function"
        },
        {
            "inputs": [],
            "name": "owner",
            "outputs": [
                {
                    "internalType": "address",
                    "name": "",
                    "type": "address"
                }
            ],
            "stateMutability": "view",
            "type": "function"
        },
        {
            "inputs": [
                {
                    "internalType": "uint256",
                    "name": "",
                    "type": "uint256"
                }
            ],
            "name": "propertiesExists",
            "outputs": [
                {
                    "internalType": "bool",
                    "name": "",
                    "type": "bool"
                }
            ],
            "stateMutability": "view",
            "type": "function"
        },
        {
            "inputs": [
                {
                    "internalType": "uint256",
                    "name": "",
                    "type": "uint256"
                }
            ],
            "name": "propertiesOwners",
            "outputs": [
                {
                    "internalType": "address",
                    "name": "",
                    "type": "address"
                }
            ],
            "stateMutability": "view",
            "type": "function"
        },
        {
            "inputs": [
                {
                    "internalType": "uint256",
                    "name": "",
                    "type": "uint256"
                }
            ],
            "name": "propertiesPrices",
            "outputs": [
                {
                    "internalType": "uint256",
                    "name": "",
                    "type": "uint256"
                }
            ],
            "stateMutability": "view",
            "type": "function"
        },
        {
            "inputs": [
                {
                    "internalType": "uint256",
                    "name": "propertiesId",
                    "type": "uint256"
                }
            ],
            "name": "purchaseProperties",
            "outputs": [],
            "stateMutability": "payable",
            "type": "function"
        },
        {
            "inputs": [],
            "name": "withdraw",
            "outputs": [],
            "stateMutability": "nonpayable",
            "type": "function"
        }
    ],
    "bytecode": "0x608060405234801561001057600080fd5b50336000806101000a81548173ffffffffffffffffffffffffffffffffffffffff021916908373ffffffffffffffffffffffffffffffffffffffff160217905550610f7e806100606000396000f3fe6080604052600436106100915760003560e01c806383ba49f21161005957806383ba49f2146101795780638da5cb5b146101b65780639c06cdcd146101e1578063f2aa8218146101fd578063f8c375841461023a57610091565b806303b66f63146100965780632bb5068c146100bf5780633ccfd60b146100fc5780634d24e90214610113578063784547a71461013c575b600080fd5b3480156100a257600080fd5b506100bd60048036038101906100b89190610b58565b610277565b005b3480156100cb57600080fd5b506100e660048036038101906100e19190610b2f565b6103e6565b6040516100f39190610dc2565b60405180910390f35b34801561010857600080fd5b50610111610406565b005b34801561011f57600080fd5b5061013a60048036038101906101359190610b2f565b610503565b005b34801561014857600080fd5b50610163600480360381019061015e9190610b2f565b6107a2565b6040516101709190610dc2565b60405180910390f35b34801561018557600080fd5b506101a0600480360381019061019b9190610b2f565b6107c2565b6040516101ad9190610ebd565b60405180910390f35b3480156101c257600080fd5b506101cb6107da565b6040516101d89190610da7565b60405180910390f35b6101fb60048036038101906101f69190610b2f565b6107fe565b005b34801561020957600080fd5b50610224600480360381019061021f9190610b2f565b610ab4565b6040516102319190610da7565b60405180910390f35b34801561024657600080fd5b50610261600480360381019061025c9190610b2f565b610ae7565b60405161026e9190610da7565b60405180910390f35b60008054906101000a900473ffffffffffffffffffffffffffffffffffffffff1673ffffffffffffffffffffffffffffffffffffffff163373ffffffffffffffffffffffffffffffffffffffff1614610305576040517f08c379a00000000000000000000000000000000000000000000000000000000081526004016102fc90610ddd565b60405180910390fd5b6003600083815260200190815260200160002060009054906101000a900460ff1615610366576040517f08c379a000000000000000000000000000000000000000000000000000000000815260040161035d90610e9d565b60405180910390fd5b60016003600084815260200190815260200160002060006101000a81548160ff021916908315150217905550806002600084815260200190815260200160002081905550817ff7ffc9902167cb167c336079010162480ee15681705bbf3f180cd1192ce1c563826040516103da9190610ebd565b60405180910390a25050565b60036020528060005260406000206000915054906101000a900460ff1681565b60008054906101000a900473ffffffffffffffffffffffffffffffffffffffff1673ffffffffffffffffffffffffffffffffffffffff163373ffffffffffffffffffffffffffffffffffffffff1614610494576040517f08c379a000000000000000000000000000000000000000000000000000000000815260040161048b90610ddd565b60405180910390fd5b600047905060008054906101000a900473ffffffffffffffffffffffffffffffffffffffff1673ffffffffffffffffffffffffffffffffffffffff166108fc829081150290604051600060405180830381858888f193505050501580156104ff573d6000803e3d6000fd5b5050565b60008054906101000a900473ffffffffffffffffffffffffffffffffffffffff1673ffffffffffffffffffffffffffffffffffffffff163373ffffffffffffffffffffffffffffffffffffffff1614610591576040517f08c379a000000000000000000000000000000000000000000000000000000000815260040161058890610ddd565b60405180910390fd5b600073ffffffffffffffffffffffffffffffffffffffff166005600083815260200190815260200160002060009054906101000a900473ffffffffffffffffffffffffffffffffffffffff1673ffffffffffffffffffffffffffffffffffffffff161415610634576040517f08c379a000000000000000000000000000000000000000000000000000000000815260040161062b90610dfd565b60405180910390fd5b6004600082815260200190815260200160002060009054906101000a900460ff1615610695576040517f08c379a000000000000000000000000000000000000000000000000000000000815260040161068c90610e7d565b60405180910390fd5b60016004600083815260200190815260200160002060006101000a81548160ff02191690831515021790555060008054906101000a900473ffffffffffffffffffffffffffffffffffffffff1673ffffffffffffffffffffffffffffffffffffffff166108fc60026000848152602001908152602001600020549081150290604051600060405180830381858888f1935050505015801561073a573d6000803e3d6000fd5b508060008054906101000a900473ffffffffffffffffffffffffffffffffffffffff1673ffffffffffffffffffffffffffffffffffffffff167fa29484a0d47153a96f00a1369c6885bbc89e95e35273ee97c943c440f7c4c28260405160405180910390a350565b60046020528060005260406000206000915054906101000a900460ff1681565b60026020528060005260406000206000915090505481565b60008054906101000a900473ffffffffffffffffffffffffffffffffffffffff1681565b806003600082815260200190815260200160002060009054906101000a900460ff1661085f576040517f08c379a000000000000000000000000000000000000000000000000000000000815260040161085690610e3d565b60405180910390fd5b600073ffffffffffffffffffffffffffffffffffffffff166001600083815260200190815260200160002060009054906101000a900473ffffffffffffffffffffffffffffffffffffffff1673ffffffffffffffffffffffffffffffffffffffff1614610901576040517f08c379a00000000000000000000000000000000000000000000000000000000081526004016108f890610e5d565b60405180910390fd5b60006002600084815260200190815260200160002054905080341461095b576040517f08c379a000000000000000000000000000000000000000000000000000000000815260040161095290610e1d565b60405180910390fd5b6004600084815260200190815260200160002060009054906101000a900460ff16156109bc576040517f08c379a00000000000000000000000000000000000000000000000000000000081526004016109b390610e7d565b60405180910390fd5b336001600085815260200190815260200160002060006101000a81548173ffffffffffffffffffffffffffffffffffffffff021916908373ffffffffffffffffffffffffffffffffffffffff160217905550336005600085815260200190815260200160002060006101000a81548173ffffffffffffffffffffffffffffffffffffffff021916908373ffffffffffffffffffffffffffffffffffffffff160217905550823373ffffffffffffffffffffffffffffffffffffffff167fe631b55b8e7910fb2922ab51d182e7f3e5d48c1b79627e78bfb7906236935bd683604051610aa79190610ebd565b60405180910390a3505050565b60056020528060005260406000206000915054906101000a900473ffffffffffffffffffffffffffffffffffffffff1681565b60016020528060005260406000206000915054906101000a900473ffffffffffffffffffffffffffffffffffffffff1681565b600081359050610b2981610f31565b92915050565b600060208284031215610b4157600080fd5b6000610b4f84828501610b1a565b91505092915050565b60008060408385031215610b6b57600080fd5b6000610b7985828601610b1a565b9250506020610b8a85828601610b1a565b9150509250929050565b610b9d81610ee9565b82525050565b610bac81610efb565b82525050565b6000610bbf602683610ed8565b91507f4f6e6c7920746865206f776e65722063616e20706572666f726d20746869732060008301527f616374696f6e00000000000000000000000000000000000000000000000000006020830152604082019050919050565b6000610c25601a83610ed8565b91507f4e6f20627579657220666f7220746869732070726f70657274790000000000006000830152602082019050919050565b6000610c65601483610ed8565b91507f496e636f72726563742076616c75652073656e740000000000000000000000006000830152602082019050919050565b6000610ca5601783610ed8565b91507f50726f706572747920646f6573206e6f742065786973740000000000000000006000830152602082019050919050565b6000610ce5601883610ed8565b91507f50726f706572747920697320616c726561647920736f6c6400000000000000006000830152602082019050919050565b6000610d25601d83610ed8565b91507f5472616e73616374696f6e20616c726561647920636f6e6669726d65640000006000830152602082019050919050565b6000610d65601783610ed8565b91507f50726f706572747920616c7265616479206578697374730000000000000000006000830152602082019050919050565b610da181610f27565b82525050565b6000602082019050610dbc6000830184610b94565b92915050565b6000602082019050610dd76000830184610ba3565b92915050565b60006020820190508181036000830152610df681610bb2565b9050919050565b60006020820190508181036000830152610e1681610c18565b9050919050565b60006020820190508181036000830152610e3681610c58565b9050919050565b60006020820190508181036000830152610e5681610c98565b9050919050565b60006020820190508181036000830152610e7681610cd8565b9050919050565b60006020820190508181036000830152610e9681610d18565b9050919050565b60006020820190508181036000830152610eb681610d58565b9050919050565b6000602082019050610ed26000830184610d98565b92915050565b600082825260208201905092915050565b6000610ef482610f07565b9050919050565b60008115159050919050565b600073ffffffffffffffffffffffffffffffffffffffff82169050919050565b6000819050919050565b610f3a81610f27565b8114610f4557600080fd5b5056fea264697066735822122067f175741bc62cbaed0aeaa1509a629e2fdda3175bc501ba234efe0e4a927fb964736f6c63430008000033",
    "linkReferences": {},
    "deployedLinkReferences": {}
}